{
  "_format": "hh-sol-artifact-1",
  "contractName": "Factory",
  "sourceName": "contracts/Factory.sol",
  "abi": [
    {
      "inputs": [],
      "stateMutability": "nonpayable",
      "type": "constructor"
    },
    {
      "inputs": [],
      "name": "NOT_VALID_ORGANISATION",
      "type": "error"
    },
    {
      "inputs": [
        {
          "internalType": "address",
          "name": "_tokenAddress",
          "type": "address"
        },
        {
          "internalType": "string",
          "name": "_name",
          "type": "string"
        },
        {
          "internalType": "string",
          "name": "_symbol",
          "type": "string"
        }
      ],
      "name": "createOrganisation",
      "outputs": [],
      "stateMutability": "nonpayable",
      "type": "function"
    },
    {
      "inputs": [],
      "name": "getEmployeeOrganisations",
      "outputs": [
        {
          "internalType": "address[]",
          "name": "",
          "type": "address[]"
        }
      ],
      "stateMutability": "view",
      "type": "function"
    },
    {
      "inputs": [],
      "name": "getOwnedOrganisations",
      "outputs": [
        {
          "internalType": "address[]",
          "name": "",
          "type": "address[]"
        }
      ],
      "stateMutability": "view",
      "type": "function"
    },
    {
      "inputs": [
        {
          "internalType": "address",
          "name": "employee",
          "type": "address"
        },
        {
          "internalType": "address",
          "name": "organisation",
          "type": "address"
        }
      ],
      "name": "registerEmployee",
      "outputs": [],
      "stateMutability": "nonpayable",
      "type": "function"
    }
  ],
  "bytecode": "0x6080604052348015600f57600080fd5b50615ee18061001f6000396000f3fe608060405234801561001057600080fd5b506004361061004c5760003560e01c806305a257221461005157806337d9a4861461006f57806361bedcdc1461008d578063be13ea25146100a9575b600080fd5b6100596100c5565b604051610066919061061e565b60405180910390f35b610077610190565b604051610084919061061e565b60405180910390f35b6100a760048036038101906100a29190610680565b61025a565b005b6100c360048036038101906100be9190610806565b610381565b005b6060600160003373ffffffffffffffffffffffffffffffffffffffff1673ffffffffffffffffffffffffffffffffffffffff16815260200190815260200160002080548060200260200160405190810160405280929190818152602001828054801561018657602002820191906000526020600020905b8160009054906101000a900473ffffffffffffffffffffffffffffffffffffffff1673ffffffffffffffffffffffffffffffffffffffff168152602001906001019080831161013c575b5050505050905090565b60606000803373ffffffffffffffffffffffffffffffffffffffff1673ffffffffffffffffffffffffffffffffffffffff16815260200190815260200160002080548060200260200160405190810160405280929190818152602001828054801561025057602002820191906000526020600020905b8160009054906101000a900473ffffffffffffffffffffffffffffffffffffffff1673ffffffffffffffffffffffffffffffffffffffff1681526020019060010190808311610206575b5050505050905090565b600260003373ffffffffffffffffffffffffffffffffffffffff1673ffffffffffffffffffffffffffffffffffffffff16815260200190815260200160002060009054906101000a900460ff166102dd576040517f7126943c00000000000000000000000000000000000000000000000000000000815260040160405180910390fd5b600160008373ffffffffffffffffffffffffffffffffffffffff1673ffffffffffffffffffffffffffffffffffffffff168152602001908152602001600020819080600181540180825580915050600190039060005260206000200160009091909190916101000a81548173ffffffffffffffffffffffffffffffffffffffff021916908373ffffffffffffffffffffffffffffffffffffffff1602179055505050565b6000838383333060405161039490610521565b6103a295949392919061091f565b604051809103906000f0801580156103be573d6000803e3d6000fd5b5090506000803373ffffffffffffffffffffffffffffffffffffffff1673ffffffffffffffffffffffffffffffffffffffff168152602001908152602001600020819080600181540180825580915050600190039060005260206000200160009091909190916101000a81548173ffffffffffffffffffffffffffffffffffffffff021916908373ffffffffffffffffffffffffffffffffffffffff1602179055506001600260008373ffffffffffffffffffffffffffffffffffffffff1673ffffffffffffffffffffffffffffffffffffffff16815260200190815260200160002060006101000a81548160ff0219169083151502179055506003819080600181540180825580915050600190039060005260206000200160009091909190916101000a81548173ffffffffffffffffffffffffffffffffffffffff021916908373ffffffffffffffffffffffffffffffffffffffff16021790555050505050565b61552b8061098183390190565b600081519050919050565b600082825260208201905092915050565b6000819050602082019050919050565b600073ffffffffffffffffffffffffffffffffffffffff82169050919050565b60006105858261055a565b9050919050565b6105958161057a565b82525050565b60006105a7838361058c565b60208301905092915050565b6000602082019050919050565b60006105cb8261052e565b6105d58185610539565b93506105e08361054a565b8060005b838110156106115781516105f8888261059b565b9750610603836105b3565b9250506001810190506105e4565b5085935050505092915050565b6000602082019050818103600083015261063881846105c0565b905092915050565b6000604051905090565b600080fd5b600080fd5b61065d8161057a565b811461066857600080fd5b50565b60008135905061067a81610654565b92915050565b600080604083850312156106975761069661064a565b5b60006106a58582860161066b565b92505060206106b68582860161066b565b9150509250929050565b600080fd5b600080fd5b6000601f19601f8301169050919050565b7f4e487b7100000000000000000000000000000000000000000000000000000000600052604160045260246000fd5b610713826106ca565b810181811067ffffffffffffffff82111715610732576107316106db565b5b80604052505050565b6000610745610640565b9050610751828261070a565b919050565b600067ffffffffffffffff821115610771576107706106db565b5b61077a826106ca565b9050602081019050919050565b82818337600083830152505050565b60006107a96107a484610756565b61073b565b9050828152602081018484840111156107c5576107c46106c5565b5b6107d0848285610787565b509392505050565b600082601f8301126107ed576107ec6106c0565b5b81356107fd848260208601610796565b91505092915050565b60008060006060848603121561081f5761081e61064a565b5b600061082d8682870161066b565b935050602084013567ffffffffffffffff81111561084e5761084d61064f565b5b61085a868287016107d8565b925050604084013567ffffffffffffffff81111561087b5761087a61064f565b5b610887868287016107d8565b9150509250925092565b61089a8161057a565b82525050565b600081519050919050565b600082825260208201905092915050565b60005b838110156108da5780820151818401526020810190506108bf565b60008484015250505050565b60006108f1826108a0565b6108fb81856108ab565b935061090b8185602086016108bc565b610914816106ca565b840191505092915050565b600060a0820190506109346000830188610891565b818103602083015261094681876108e6565b9050818103604083015261095a81866108e6565b90506109696060830185610891565b6109766080830184610891565b969550505050505056fe60806040526001600960006101000a81548160ff02191690831515021790555034801561002b57600080fd5b5060405161552b38038061552b833981810160405281019061004d919061040d565b6001600081905550600073ffffffffffffffffffffffffffffffffffffffff168573ffffffffffffffffffffffffffffffffffffffff16141580156100bf5750600073ffffffffffffffffffffffffffffffffffffffff168273ffffffffffffffffffffffffffffffffffffffff1614155b6100f5576040517f5963709b00000000000000000000000000000000000000000000000000000000815260040160405180910390fd5b84600360006101000a81548173ffffffffffffffffffffffffffffffffffffffff021916908373ffffffffffffffffffffffffffffffffffffffff16021790555080600460006101000a81548173ffffffffffffffffffffffffffffffffffffffff021916908373ffffffffffffffffffffffffffffffffffffffff160217905550836001908161018691906106e1565b50826002908161019691906106e1565b5081600560006101000a81548173ffffffffffffffffffffffffffffffffffffffff021916908373ffffffffffffffffffffffffffffffffffffffff1602179055506001600660008473ffffffffffffffffffffffffffffffffffffffff1673ffffffffffffffffffffffffffffffffffffffff16815260200190815260200160002060006101000a81548160ff02191690831515021790555050505050506107b3565b6000604051905090565b600080fd5b600080fd5b600073ffffffffffffffffffffffffffffffffffffffff82169050919050565b60006102798261024e565b9050919050565b6102898161026e565b811461029457600080fd5b50565b6000815190506102a681610280565b92915050565b600080fd5b600080fd5b6000601f19601f8301169050919050565b7f4e487b7100000000000000000000000000000000000000000000000000000000600052604160045260246000fd5b6102ff826102b6565b810181811067ffffffffffffffff8211171561031e5761031d6102c7565b5b80604052505050565b600061033161023a565b905061033d82826102f6565b919050565b600067ffffffffffffffff82111561035d5761035c6102c7565b5b610366826102b6565b9050602081019050919050565b60005b83811015610391578082015181840152602081019050610376565b60008484015250505050565b60006103b06103ab84610342565b610327565b9050828152602081018484840111156103cc576103cb6102b1565b5b6103d7848285610373565b509392505050565b600082601f8301126103f4576103f36102ac565b5b815161040484826020860161039d565b91505092915050565b600080600080600060a0868803121561042957610428610244565b5b600061043788828901610297565b955050602086015167ffffffffffffffff81111561045857610457610249565b5b610464888289016103df565b945050604086015167ffffffffffffffff81111561048557610484610249565b5b610491888289016103df565b93505060606104a288828901610297565b92505060806104b388828901610297565b9150509295509295909350565b600081519050919050565b7f4e487b7100000000000000000000000000000000000000000000000000000000600052602260045260246000fd5b6000600282049050600182168061051257607f821691505b602082108103610525576105246104cb565b5b50919050565b60008190508160005260206000209050919050565b60006020601f8301049050919050565b600082821b905092915050565b60006008830261058d7fffffffffffffffffffffffffffffffffffffffffffffffffffffffffffffffff82610550565b6105978683610550565b95508019841693508086168417925050509392505050565b6000819050919050565b6000819050919050565b60006105de6105d96105d4846105af565b6105b9565b6105af565b9050919050565b6000819050919050565b6105f8836105c3565b61060c610604826105e5565b84845461055d565b825550505050565b600090565b610621610614565b61062c8184846105ef565b505050565b5b8181101561065057610645600082610619565b600181019050610632565b5050565b601f821115610695576106668161052b565b61066f84610540565b8101602085101561067e578190505b61069261068a85610540565b830182610631565b50505b505050565b600082821c905092915050565b60006106b86000198460080261069a565b1980831691505092915050565b60006106d183836106a7565b9150826002028217905092915050565b6106ea826104c0565b67ffffffffffffffff811115610703576107026102c7565b5b61070d82546104fa565b610718828285610654565b600060209050601f83116001811461074b5760008415610739578287015190505b61074385826106c5565b8655506107ab565b601f1984166107598661052b565b60005b828110156107815784890151825560018201915060208501945060208101905061075c565b8683101561079e578489015161079a601f8916826106a7565b8355505b6001600288020188555050505b505050505050565b614d69806107c26000396000f3fe608060405234801561001057600080fd5b50600436106102065760003560e01c80638dec17201161011a578063c431e353116100ad578063d3c7a4b81161007c578063d3c7a4b8146105b9578063e3366fed146105d5578063ec5d9e58146105f3578063fca442b014610611578063fdcc35bd1461064157610206565b8063c431e35314610555578063c4527f2614610573578063d21f95431461057d578063d2b1162e1461059b57610206565b8063b48b41e7116100e9578063b48b41e7146104e3578063b7f02999146104ff578063c0e58a0e1461051d578063c3b79d171461053957610206565b80638dec172014610445578063a3e3bf7d14610477578063ac3302e614610495578063ac52f0cb146104c557610206565b806351858e271161019d5780636c08b8631161016c5780636c08b863146103a157806370480275146103bd57806378a9c3a5146103d957806389404a79146104095780638da5cb5b1461042757610206565b806351858e271461032b5780635acdf4a41461033557806364c03a5e1461035357806369f039401461038357610206565b806324d7806c116101d957806324d7806c14610293578063315cb0da146102c357806346f21c07146102df57806350cd5cbc146102fb57610206565b80630f606bea1461020b578063127ed074146102295780631284a189146102475780631785f53c14610277575b600080fd5b61021361065d565b6040516102209190613c8f565b60405180910390f35b6102316106ea565b60405161023e9190613c8f565b60405180910390f35b610261600480360381019061025c9190613d39565b610734565b60405161026e9190613db9565b60405180910390f35b610291600480360381019061028c9190613dd4565b61076f565b005b6102ad60048036038101906102a89190613dd4565b610894565b6040516102ba9190613e1c565b60405180910390f35b6102dd60048036038101906102d89190613e63565b6108b4565b005b6102f960048036038101906102f49190613e90565b610a5f565b005b61031560048036038101906103109190613dd4565b610cf7565b60405161032291906140ea565b60405180910390f35b610333611010565b005b61033d6110e8565b60405161034a919061416b565b60405180910390f35b61036d60048036038101906103689190613dd4565b61110e565b60405161037a9190613c8f565b60405180910390f35b61038b6114ee565b6040516103989190613c8f565b60405180910390f35b6103bb60048036038101906103b69190614186565b6114f4565b005b6103d760048036038101906103d29190613dd4565b611759565b005b6103f360048036038101906103ee9190613dd4565b6118e4565b6040516104009190613c8f565b60405180910390f35b6104116118fc565b60405161041e9190613c8f565b60405180910390f35b61042f611946565b60405161043c91906141c2565b60405180910390f35b61045f600480360381019061045a9190613dd4565b61196c565b60405161046e939291906141dd565b60405180910390f35b61047f6119a3565b60405161048c91906140ea565b60405180910390f35b6104af60048036038101906104aa9190613e90565b611cba565b6040516104bc9190613db9565b60405180910390f35b6104cd6120a7565b6040516104da9190614223565b60405180910390f35b6104fd60048036038101906104f89190614263565b6120fe565b005b61050761248c565b60405161051491906142ed565b60405180910390f35b61053760048036038101906105329190614186565b61251a565b005b610553600480360381019061054e9190613e90565b6125f4565b005b61055d61286e565b60405161056a9190613c8f565b60405180910390f35b61057b612911565b005b6105856129e9565b6040516105929190613c8f565b60405180910390f35b6105a3612a33565b6040516105b09190613e1c565b60405180910390f35b6105d360048036038101906105ce9190613e63565b612a46565b005b6105dd612e3a565b6040516105ea91906144d5565b60405180910390f35b6105fb6131dc565b60405161060891906142ed565b60405180910390f35b61062b60048036038101906106269190614186565b61326a565b60405161063891906140ea565b60405180910390f35b61065b600480360381019061065691906144f7565b6135a4565b005b6000600660003373ffffffffffffffffffffffffffffffffffffffff1673ffffffffffffffffffffffffffffffffffffffff16815260200190815260200160002060009054906101000a900460ff166106e2576040517fd238ed5900000000000000000000000000000000000000000000000000000000815260040160405180910390fd5b600a54905090565b6000600760003373ffffffffffffffffffffffffffffffffffffffff1673ffffffffffffffffffffffffffffffffffffffff16815260200190815260200160002060060154905090565b6000308585858560405160200161074f9594939291906145b3565b604051602081830303815290604052805190602001209050949350505050565b600560009054906101000a900473ffffffffffffffffffffffffffffffffffffffff1673ffffffffffffffffffffffffffffffffffffffff163373ffffffffffffffffffffffffffffffffffffffff16146107f6576040517fd238ed5900000000000000000000000000000000000000000000000000000000815260040160405180910390fd5b6000600660008373ffffffffffffffffffffffffffffffffffffffff1673ffffffffffffffffffffffffffffffffffffffff16815260200190815260200160002060006101000a81548160ff0219169083151502179055508073ffffffffffffffffffffffffffffffffffffffff167fa3b62bc36326052d97ea62d63c3d60308ed4c3ea8ac079dd8499f1e9c4f80c0f60405160405180910390a250565b60066020528060005260406000206000915054906101000a900460ff1681565b6000600b60003373ffffffffffffffffffffffffffffffffffffffff1673ffffffffffffffffffffffffffffffffffffffff16815260200190815260200160002090508060020160009054906101000a900460ff1615610940576040517f09fef68300000000000000000000000000000000000000000000000000000000815260040160405180910390fd5b6000801b81600001541415801561095a5750818160000154145b610990576040517f3190815300000000000000000000000000000000000000000000000000000000815260040160405180910390fd5b6004600760003373ffffffffffffffffffffffffffffffffffffffff1673ffffffffffffffffffffffffffffffffffffffff16815260200190815260200160002060070160006101000a81548160ff021916908360048111156109f6576109f5613f6f565b5b021790555060018160020160006101000a81548160ff0219169083151502179055503373ffffffffffffffffffffffffffffffffffffffff167f3ea7a2184fd07e601e85c2763d5ce0811e5340156854cb97d89922894fce125260405160405180910390a25050565b600660003373ffffffffffffffffffffffffffffffffffffffff1673ffffffffffffffffffffffffffffffffffffffff16815260200190815260200160002060009054906101000a900460ff16610ae2576040517fd238ed5900000000000000000000000000000000000000000000000000000000815260040160405180910390fd5b60008111610b25576040517f08c379a0000000000000000000000000000000000000000000000000000000008152600401610b1c9061465e565b60405180910390fd5b60016004811115610b3957610b38613f6f565b5b600760008473ffffffffffffffffffffffffffffffffffffffff1673ffffffffffffffffffffffffffffffffffffffff16815260200190815260200160002060070160009054906101000a900460ff166004811115610b9b57610b9a613f6f565b5b14610bdb576040517f08c379a0000000000000000000000000000000000000000000000000000000008152600401610bd2906146ca565b60405180910390fd5b610be482613726565b6000600760008473ffffffffffffffffffffffffffffffffffffffff1673ffffffffffffffffffffffffffffffffffffffff16815260200190815260200160002090508060090154821115610c6e576040517f08c379a0000000000000000000000000000000000000000000000000000000008152600401610c6590614736565b60405180910390fd5b81816009016000828254610c829190614785565b925050819055508181600a016000828254610c9d9190614785565b925050819055508273ffffffffffffffffffffffffffffffffffffffff167fe5aaa25f35338f7dffe5f7fab72ca57bbe02211e6680eae54a00170301fcb8aa83604051610cea9190613c8f565b60405180910390a2505050565b610cff613c0a565b600760008373ffffffffffffffffffffffffffffffffffffffff1673ffffffffffffffffffffffffffffffffffffffff1681526020019081526020016000206040518061016001604052908160008201548152602001600182018054610d64906147e8565b80601f0160208091040260200160405190810160405280929190818152602001828054610d90906147e8565b8015610ddd5780601f10610db257610100808354040283529160200191610ddd565b820191906000526020600020905b815481529060010190602001808311610dc057829003601f168201915b50505050508152602001600282018054610df6906147e8565b80601f0160208091040260200160405190810160405280929190818152602001828054610e22906147e8565b8015610e6f5780601f10610e4457610100808354040283529160200191610e6f565b820191906000526020600020905b815481529060010190602001808311610e5257829003601f168201915b50505050508152602001600382018054610e88906147e8565b80601f0160208091040260200160405190810160405280929190818152602001828054610eb4906147e8565b8015610f015780601f10610ed657610100808354040283529160200191610f01565b820191906000526020600020905b815481529060010190602001808311610ee457829003601f168201915b50505050508152602001600482018054610f1a906147e8565b80601f0160208091040260200160405190810160405280929190818152602001828054610f46906147e8565b8015610f935780601f10610f6857610100808354040283529160200191610f93565b820191906000526020600020905b815481529060010190602001808311610f7657829003601f168201915b5050505050815260200160058201548152602001600682015481526020016007820160009054906101000a900460ff166004811115610fd557610fd4613f6f565b5b6004811115610fe757610fe6613f6f565b5b81526020016008820154815260200160098201548152602001600a820154815250509050919050565b600660003373ffffffffffffffffffffffffffffffffffffffff1673ffffffffffffffffffffffffffffffffffffffff16815260200190815260200160002060009054906101000a900460ff16611093576040517fd238ed5900000000000000000000000000000000000000000000000000000000815260040160405180910390fd5b6000600960006101000a81548160ff0219169083151502179055507fb80d1ae5628c2af91424c54c87acfd15016be4bebeef0425b328238702f3483160016040516110de9190613e1c565b60405180910390a1565b600360009054906101000a900473ffffffffffffffffffffffffffffffffffffffff1681565b600080600760008473ffffffffffffffffffffffffffffffffffffffff1673ffffffffffffffffffffffffffffffffffffffff1681526020019081526020016000206040518061016001604052908160008201548152602001600182018054611176906147e8565b80601f01602080910402602001604051908101604052809291908181526020018280546111a2906147e8565b80156111ef5780601f106111c4576101008083540402835291602001916111ef565b820191906000526020600020905b8154815290600101906020018083116111d257829003601f168201915b50505050508152602001600282018054611208906147e8565b80601f0160208091040260200160405190810160405280929190818152602001828054611234906147e8565b80156112815780601f1061125657610100808354040283529160200191611281565b820191906000526020600020905b81548152906001019060200180831161126457829003601f168201915b5050505050815260200160038201805461129a906147e8565b80601f01602080910402602001604051908101604052809291908181526020018280546112c6906147e8565b80156113135780601f106112e857610100808354040283529160200191611313565b820191906000526020600020905b8154815290600101906020018083116112f657829003601f168201915b5050505050815260200160048201805461132c906147e8565b80601f0160208091040260200160405190810160405280929190818152602001828054611358906147e8565b80156113a55780601f1061137a576101008083540402835291602001916113a5565b820191906000526020600020905b81548152906001019060200180831161138857829003601f168201915b5050505050815260200160058201548152602001600682015481526020016007820160009054906101000a900460ff1660048111156113e7576113e6613f6f565b5b60048111156113f9576113f8613f6f565b5b81526020016008820154815260200160098201548152602001600a8201548152505090506001600481111561143157611430613f6f565b5b8160e00151600481111561144857611447613f6f565b5b1461145b578061012001519150506114e9565b6000600c60008573ffffffffffffffffffffffffffffffffffffffff1673ffffffffffffffffffffffffffffffffffffffff16815260200190815260200160002054426114a89190614785565b9050600062278d008360c001516114bf9190614848565b9050600081836114cf9190614879565b9050808461012001516114e291906148bb565b9450505050505b919050565b600a5481565b6114fc613a17565b600960009054906101000a900460ff16611542576040517f01324de800000000000000000000000000000000000000000000000000000000815260040160405180910390fd5b6000811161157c576040517f69a21a9700000000000000000000000000000000000000000000000000000000815260040160405180910390fd5b61158533613726565b600760003373ffffffffffffffffffffffffffffffffffffffff1673ffffffffffffffffffffffffffffffffffffffff16815260200190815260200160002060090154811115611601576040517f50b1f35600000000000000000000000000000000000000000000000000000000815260040160405180910390fd5b80600760003373ffffffffffffffffffffffffffffffffffffffff1673ffffffffffffffffffffffffffffffffffffffff16815260200190815260200160002060090160008282546116539190614785565b9250508190555080600760003373ffffffffffffffffffffffffffffffffffffffff1673ffffffffffffffffffffffffffffffffffffffff16815260200190815260200160002060080160008282546116ac91906148bb565b925050819055506117003382600360009054906101000a900473ffffffffffffffffffffffffffffffffffffffff1673ffffffffffffffffffffffffffffffffffffffff16613a5d9092919063ffffffff16565b3373ffffffffffffffffffffffffffffffffffffffff167f7fcf532c15f0a6db0bd6d0e038bea71d30d808c7d98cb3bf7268a95bf5081b65826040516117469190613c8f565b60405180910390a2611756613adc565b50565b600560009054906101000a900473ffffffffffffffffffffffffffffffffffffffff1673ffffffffffffffffffffffffffffffffffffffff163373ffffffffffffffffffffffffffffffffffffffff16146117e0576040517fd238ed5900000000000000000000000000000000000000000000000000000000815260040160405180910390fd5b600073ffffffffffffffffffffffffffffffffffffffff168173ffffffffffffffffffffffffffffffffffffffff1603611846576040517f5963709b00000000000000000000000000000000000000000000000000000000815260040160405180910390fd5b6001600660008373ffffffffffffffffffffffffffffffffffffffff1673ffffffffffffffffffffffffffffffffffffffff16815260200190815260200160002060006101000a81548160ff0219169083151502179055508073ffffffffffffffffffffffffffffffffffffffff167f44d6d25963f097ad14f29f06854a01f575648a1ef82f30e562ccd3889717e33960405160405180910390a250565b600c6020528060005260406000206000915090505481565b6000600760003373ffffffffffffffffffffffffffffffffffffffff1673ffffffffffffffffffffffffffffffffffffffff16815260200190815260200160002060080154905090565b600560009054906101000a900473ffffffffffffffffffffffffffffffffffffffff1681565b600b6020528060005260406000206000915090508060000154908060010154908060020160009054906101000a900460ff16905083565b6119ab613c0a565b600760003373ffffffffffffffffffffffffffffffffffffffff1673ffffffffffffffffffffffffffffffffffffffff1681526020019081526020016000206040518061016001604052908160008201548152602001600182018054611a10906147e8565b80601f0160208091040260200160405190810160405280929190818152602001828054611a3c906147e8565b8015611a895780601f10611a5e57610100808354040283529160200191611a89565b820191906000526020600020905b815481529060010190602001808311611a6c57829003601f168201915b50505050508152602001600282018054611aa2906147e8565b80601f0160208091040260200160405190810160405280929190818152602001828054611ace906147e8565b8015611b1b5780601f10611af057610100808354040283529160200191611b1b565b820191906000526020600020905b815481529060010190602001808311611afe57829003601f168201915b50505050508152602001600382018054611b34906147e8565b80601f0160208091040260200160405190810160405280929190818152602001828054611b60906147e8565b8015611bad5780601f10611b8257610100808354040283529160200191611bad565b820191906000526020600020905b815481529060010190602001808311611b9057829003601f168201915b50505050508152602001600482018054611bc6906147e8565b80601f0160208091040260200160405190810160405280929190818152602001828054611bf2906147e8565b8015611c3f5780601f10611c1457610100808354040283529160200191611c3f565b820191906000526020600020905b815481529060010190602001808311611c2257829003601f168201915b5050505050815260200160058201548152602001600682015481526020016007820160009054906101000a900460ff166004811115611c8157611c80613f6f565b5b6004811115611c9357611c92613f6f565b5b81526020016008820154815260200160098201548152602001600a82015481525050905090565b6000600660003373ffffffffffffffffffffffffffffffffffffffff1673ffffffffffffffffffffffffffffffffffffffff16815260200190815260200160002060009054906101000a900460ff16611d3f576040517fd238ed5900000000000000000000000000000000000000000000000000000000815260040160405180910390fd5b600073ffffffffffffffffffffffffffffffffffffffff168373ffffffffffffffffffffffffffffffffffffffff1603611da5576040517f5963709b00000000000000000000000000000000000000000000000000000000815260040160405180910390fd5b60008211611ddf576040517f69a21a9700000000000000000000000000000000000000000000000000000000815260040160405180910390fd5b60016004811115611df357611df2613f6f565b5b600760008573ffffffffffffffffffffffffffffffffffffffff1673ffffffffffffffffffffffffffffffffffffffff16815260200190815260200160002060070160009054906101000a900460ff166004811115611e5557611e54613f6f565b5b03611e8c576040517fbc03309b00000000000000000000000000000000000000000000000000000000815260040160405180910390fd5b60003084843342604051602001611ea79594939291906145b3565b604051602081830303815290604052805190602001209050604051806060016040528082815260200184815260200160001515815250600b60008673ffffffffffffffffffffffffffffffffffffffff1673ffffffffffffffffffffffffffffffffffffffff168152602001908152602001600020600082015181600001556020820151816001015560408201518160020160006101000a81548160ff0219169083151502179055509050506000600760008673ffffffffffffffffffffffffffffffffffffffff1673ffffffffffffffffffffffffffffffffffffffff16815260200190815260200160002060070160006101000a81548160ff02191690836004811115611fb957611fb8613f6f565b5b0217905550600460009054906101000a900473ffffffffffffffffffffffffffffffffffffffff1673ffffffffffffffffffffffffffffffffffffffff166361bedcdc33306040518363ffffffff1660e01b815260040161201b9291906148ef565b600060405180830381600087803b15801561203557600080fd5b505af1158015612049573d6000803e3d6000fd5b505050508373ffffffffffffffffffffffffffffffffffffffff167ffae60a88b1ed873b9a8825fd24e60f0b6eed196546b6ebef14d5d5280b15af068483604051612095929190614918565b60405180910390a28091505092915050565b6000600760003373ffffffffffffffffffffffffffffffffffffffff1673ffffffffffffffffffffffffffffffffffffffff16815260200190815260200160002060070160009054906101000a900460ff16905090565b600660003373ffffffffffffffffffffffffffffffffffffffff1673ffffffffffffffffffffffffffffffffffffffff16815260200190815260200160002060009054906101000a900460ff16612181576040517fd238ed5900000000000000000000000000000000000000000000000000000000815260040160405180910390fd5b6000600760008473ffffffffffffffffffffffffffffffffffffffff1673ffffffffffffffffffffffffffffffffffffffff16815260200190815260200160002060070160009054906101000a900460ff1690508160048111156121e8576121e7613f6f565b5b8160048111156121fb576121fa613f6f565b5b036122065750612488565b6001600481111561221a57612219613f6f565b5b81600481111561222d5761222c613f6f565b5b14801561225f57506001600481111561224957612248613f6f565b5b82600481111561225c5761225b613f6f565b5b14155b156122cd5761226d83613726565b600760008473ffffffffffffffffffffffffffffffffffffffff1673ffffffffffffffffffffffffffffffffffffffff16815260200190815260200160002060060154600a60008282546122c19190614785565b925050819055506123cc565b600160048111156122e1576122e0613f6f565b5b8160048111156122f4576122f3613f6f565b5b1415801561232657506001600481111561231157612310613f6f565b5b82600481111561232457612323613f6f565b5b145b156123cb5742600c60008573ffffffffffffffffffffffffffffffffffffffff1673ffffffffffffffffffffffffffffffffffffffff16815260200190815260200160002081905550600760008473ffffffffffffffffffffffffffffffffffffffff1673ffffffffffffffffffffffffffffffffffffffff16815260200190815260200160002060060154600a60008282546123c391906148bb565b925050819055505b5b81600760008573ffffffffffffffffffffffffffffffffffffffff1673ffffffffffffffffffffffffffffffffffffffff16815260200190815260200160002060070160006101000a81548160ff0219169083600481111561243157612430613f6f565b5b02179055508273ffffffffffffffffffffffffffffffffffffffff167f4eec0b2982aa6ed99f88acb630b03ea1104bc5d70a3c277cc35255d4bb4d3f97828460405161247e929190614941565b60405180910390a2505b5050565b60028054612499906147e8565b80601f01602080910402602001604051908101604052809291908181526020018280546124c5906147e8565b80156125125780601f106124e757610100808354040283529160200191612512565b820191906000526020600020905b8154815290600101906020018083116124f557829003601f168201915b505050505081565b60008111612554576040517f69a21a9700000000000000000000000000000000000000000000000000000000815260040160405180910390fd5b6125a3333083600360009054906101000a900473ffffffffffffffffffffffffffffffffffffffff1673ffffffffffffffffffffffffffffffffffffffff16613ae6909392919063ffffffff16565b3373ffffffffffffffffffffffffffffffffffffffff167f8283e6b33f7f1cfc32820a5fd82cd9e5224d98c14133977f1e7902ce920e51ce826040516125e99190613c8f565b60405180910390a250565b600660003373ffffffffffffffffffffffffffffffffffffffff1673ffffffffffffffffffffffffffffffffffffffff16815260200190815260200160002060009054906101000a900460ff16612677576040517fd238ed5900000000000000000000000000000000000000000000000000000000815260040160405180910390fd5b600081116126b1576040517f69a21a9700000000000000000000000000000000000000000000000000000000815260040160405180910390fd5b6126ba82613726565b6000600760008473ffffffffffffffffffffffffffffffffffffffff1673ffffffffffffffffffffffffffffffffffffffff1681526020019081526020016000206006015490506001600481111561271557612714613f6f565b5b600760008573ffffffffffffffffffffffffffffffffffffffff1673ffffffffffffffffffffffffffffffffffffffff16815260200190815260200160002060070160009054906101000a900460ff16600481111561277757612776613f6f565b5b036127d2578082106127ac57808261278f9190614785565b600a60008282546127a091906148bb565b925050819055506127d1565b81816127b89190614785565b600a60008282546127c99190614785565b925050819055505b5b81600760008573ffffffffffffffffffffffffffffffffffffffff1673ffffffffffffffffffffffffffffffffffffffff168152602001908152602001600020600601819055508273ffffffffffffffffffffffffffffffffffffffff167fe2afa2becb25a6b6b20ab1801bff38cd94018485e35ef475d844c8c3c6054144828460405161286192919061496a565b60405180910390a2505050565b6000600360009054906101000a900473ffffffffffffffffffffffffffffffffffffffff1673ffffffffffffffffffffffffffffffffffffffff166370a08231306040518263ffffffff1660e01b81526004016128cb91906141c2565b602060405180830381865afa1580156128e8573d6000803e3d6000fd5b505050506040513d601f19601f8201168201806040525081019061290c91906149a8565b905090565b600660003373ffffffffffffffffffffffffffffffffffffffff1673ffffffffffffffffffffffffffffffffffffffff16815260200190815260200160002060009054906101000a900460ff16612994576040517fd238ed5900000000000000000000000000000000000000000000000000000000815260040160405180910390fd5b6001600960006101000a81548160ff0219169083151502179055507fb80d1ae5628c2af91424c54c87acfd15016be4bebeef0425b328238702f3483160006040516129df9190613e1c565b60405180910390a1565b6000600760003373ffffffffffffffffffffffffffffffffffffffff1673ffffffffffffffffffffffffffffffffffffffff168152602001908152602001600020600a0154905090565b600960009054906101000a900460ff1681565b6000600b60003373ffffffffffffffffffffffffffffffffffffffff1673ffffffffffffffffffffffffffffffffffffffff16815260200190815260200160002090508060020160009054906101000a900460ff1615612ad2576040517f09fef68300000000000000000000000000000000000000000000000000000000815260040160405180910390fd5b6000801b816000015414158015612aec5750818160000154145b612b22576040517f3190815300000000000000000000000000000000000000000000000000000000815260040160405180910390fd5b612b2b33613726565b8060010154600760003373ffffffffffffffffffffffffffffffffffffffff1673ffffffffffffffffffffffffffffffffffffffff168152602001908152602001600020600601819055506001600760003373ffffffffffffffffffffffffffffffffffffffff1673ffffffffffffffffffffffffffffffffffffffff16815260200190815260200160002060070160006101000a81548160ff02191690836004811115612bdc57612bdb613f6f565b5b0217905550600880549050600760003373ffffffffffffffffffffffffffffffffffffffff1673ffffffffffffffffffffffffffffffffffffffff168152602001908152602001600020600001819055508060010154600a6000828254612c4391906148bb565b9250508190555042600c60003373ffffffffffffffffffffffffffffffffffffffff1673ffffffffffffffffffffffffffffffffffffffff168152602001908152602001600020819055506008600760003373ffffffffffffffffffffffffffffffffffffffff1673ffffffffffffffffffffffffffffffffffffffff16815260200190815260200160002090806001815401808255809150506001900390600052602060002090600b02016000909190919091506000820154816000015560018201816001019081612d169190614bbc565b5060028201816002019081612d2b9190614bbc565b5060038201816003019081612d409190614bbc565b5060048201816004019081612d559190614bbc565b5060058201548160050155600682015481600601556007820160009054906101000a900460ff168160070160006101000a81548160ff02191690836004811115612da257612da1613f6f565b5b02179055506008820154816008015560098201548160090155600a82015481600a0155505060018160020160006101000a81548160ff0219169083151502179055503373ffffffffffffffffffffffffffffffffffffffff167f6abf0124a2a243d71c9f1c5f190a825065caca21db023f043b21703720f090618260010154604051612e2e9190613c8f565b60405180910390a25050565b6060600660003373ffffffffffffffffffffffffffffffffffffffff1673ffffffffffffffffffffffffffffffffffffffff16815260200190815260200160002060009054906101000a900460ff16612ebf576040517fd238ed5900000000000000000000000000000000000000000000000000000000815260040160405180910390fd5b6008805480602002602001604051908101604052809291908181526020016000905b828210156131d357838290600052602060002090600b02016040518061016001604052908160008201548152602001600182018054612f1f906147e8565b80601f0160208091040260200160405190810160405280929190818152602001828054612f4b906147e8565b8015612f985780601f10612f6d57610100808354040283529160200191612f98565b820191906000526020600020905b815481529060010190602001808311612f7b57829003601f168201915b50505050508152602001600282018054612fb1906147e8565b80601f0160208091040260200160405190810160405280929190818152602001828054612fdd906147e8565b801561302a5780601f10612fff5761010080835404028352916020019161302a565b820191906000526020600020905b81548152906001019060200180831161300d57829003601f168201915b50505050508152602001600382018054613043906147e8565b80601f016020809104026020016040519081016040528092919081815260200182805461306f906147e8565b80156130bc5780601f10613091576101008083540402835291602001916130bc565b820191906000526020600020905b81548152906001019060200180831161309f57829003601f168201915b505050505081526020016004820180546130d5906147e8565b80601f0160208091040260200160405190810160405280929190818152602001828054613101906147e8565b801561314e5780601f106131235761010080835404028352916020019161314e565b820191906000526020600020905b81548152906001019060200180831161313157829003601f168201915b5050505050815260200160058201548152602001600682015481526020016007820160009054906101000a900460ff1660048111156131905761318f613f6f565b5b60048111156131a2576131a1613f6f565b5b81526020016008820154815260200160098201548152602001600a8201548152505081526020019060010190612ee1565b50505050905090565b600180546131e9906147e8565b80601f0160208091040260200160405190810160405280929190818152602001828054613215906147e8565b80156132625780601f1061323757610100808354040283529160200191613262565b820191906000526020600020905b81548152906001019060200180831161324557829003601f168201915b505050505081565b613272613c0a565b60088054905082106132b0576040517f5a9e653400000000000000000000000000000000000000000000000000000000815260040160405180910390fd5b600882815481106132c4576132c3614ca4565b5b90600052602060002090600b020160405180610160016040529081600082015481526020016001820180546132f8906147e8565b80601f0160208091040260200160405190810160405280929190818152602001828054613324906147e8565b80156133715780601f1061334657610100808354040283529160200191613371565b820191906000526020600020905b81548152906001019060200180831161335457829003601f168201915b5050505050815260200160028201805461338a906147e8565b80601f01602080910402602001604051908101604052809291908181526020018280546133b6906147e8565b80156134035780601f106133d857610100808354040283529160200191613403565b820191906000526020600020905b8154815290600101906020018083116133e657829003601f168201915b5050505050815260200160038201805461341c906147e8565b80601f0160208091040260200160405190810160405280929190818152602001828054613448906147e8565b80156134955780601f1061346a57610100808354040283529160200191613495565b820191906000526020600020905b81548152906001019060200180831161347857829003601f168201915b505050505081526020016004820180546134ae906147e8565b80601f01602080910402602001604051908101604052809291908181526020018280546134da906147e8565b80156135275780601f106134fc57610100808354040283529160200191613527565b820191906000526020600020905b81548152906001019060200180831161350a57829003601f168201915b5050505050815260200160058201548152602001600682015481526020016007820160009054906101000a900460ff16600481111561356957613568613f6f565b5b600481111561357b5761357a613f6f565b5b81526020016008820154815260200160098201548152602001600a820154815250509050919050565b600560009054906101000a900473ffffffffffffffffffffffffffffffffffffffff1673ffffffffffffffffffffffffffffffffffffffff163373ffffffffffffffffffffffffffffffffffffffff161461362b576040517fd238ed5900000000000000000000000000000000000000000000000000000000815260040160405180910390fd5b600073ffffffffffffffffffffffffffffffffffffffff168273ffffffffffffffffffffffffffffffffffffffff1603613691576040517f5963709b00000000000000000000000000000000000000000000000000000000815260040160405180910390fd5b6136bc82828573ffffffffffffffffffffffffffffffffffffffff16613a5d9092919063ffffffff16565b8173ffffffffffffffffffffffffffffffffffffffff168373ffffffffffffffffffffffffffffffffffffffff167fb845fd8d754dce69c843afbbad2e9134969095429aee62ec8f205e921dca1bc8836040516137199190613c8f565b60405180910390a3505050565b6001600481111561373a57613739613f6f565b5b600760008373ffffffffffffffffffffffffffffffffffffffff1673ffffffffffffffffffffffffffffffffffffffff16815260200190815260200160002060070160009054906101000a900460ff16600481111561379c5761379b613f6f565b5b03613a14576000600c60008373ffffffffffffffffffffffffffffffffffffffff1673ffffffffffffffffffffffffffffffffffffffff168152602001908152602001600020549050600081036138375742600c60008473ffffffffffffffffffffffffffffffffffffffff1673ffffffffffffffffffffffffffffffffffffffff1681526020019081526020016000208190555050613a14565b600081426138459190614785565b905060008103613856575050613a14565b6000600760008573ffffffffffffffffffffffffffffffffffffffff1673ffffffffffffffffffffffffffffffffffffffff168152602001908152602001600020600601549050600081036138f15742600c60008673ffffffffffffffffffffffffffffffffffffffff1673ffffffffffffffffffffffffffffffffffffffff16815260200190815260200160002081905550505050613a14565b600062278d0083836139039190614879565b61390d9190614848565b905060008111156139cb5780600760008773ffffffffffffffffffffffffffffffffffffffff1673ffffffffffffffffffffffffffffffffffffffff168152602001908152602001600020600901600082825461396a91906148bb565b9250508190555080600760008773ffffffffffffffffffffffffffffffffffffffff1673ffffffffffffffffffffffffffffffffffffffff168152602001908152602001600020600a0160008282546139c391906148bb565b925050819055505b42600c60008773ffffffffffffffffffffffffffffffffffffffff1673ffffffffffffffffffffffffffffffffffffffff16815260200190815260200160002081905550505050505b50565b600260005403613a53576040517f3ee5aeb500000000000000000000000000000000000000000000000000000000815260040160405180910390fd5b6002600081905550565b613ad7838473ffffffffffffffffffffffffffffffffffffffff1663a9059cbb8585604051602401613a90929190614cd3565b604051602081830303815290604052915060e01b6020820180517bffffffffffffffffffffffffffffffffffffffffffffffffffffffff8381831617835250505050613b68565b505050565b6001600081905550565b613b62848573ffffffffffffffffffffffffffffffffffffffff166323b872dd868686604051602401613b1b93929190614cfc565b604051602081830303815290604052915060e01b6020820180517bffffffffffffffffffffffffffffffffffffffffffffffffffffffff8381831617835250505050613b68565b50505050565b600080602060008451602086016000885af180613b8b576040513d6000823e3d81fd5b3d925060005191505060008214613ba6576001811415613bc2565b60008473ffffffffffffffffffffffffffffffffffffffff163b145b15613c0457836040517f5274afe7000000000000000000000000000000000000000000000000000000008152600401613bfb91906141c2565b60405180910390fd5b50505050565b6040518061016001604052806000815260200160608152602001606081526020016060815260200160608152602001600081526020016000815260200160006004811115613c5b57613c5a613f6f565b5b81526020016000815260200160008152602001600081525090565b6000819050919050565b613c8981613c76565b82525050565b6000602082019050613ca46000830184613c80565b92915050565b600080fd5b600073ffffffffffffffffffffffffffffffffffffffff82169050919050565b6000613cda82613caf565b9050919050565b613cea81613ccf565b8114613cf557600080fd5b50565b600081359050613d0781613ce1565b92915050565b613d1681613c76565b8114613d2157600080fd5b50565b600081359050613d3381613d0d565b92915050565b60008060008060808587031215613d5357613d52613caa565b5b6000613d6187828801613cf8565b9450506020613d7287828801613d24565b9350506040613d8387828801613cf8565b9250506060613d9487828801613d24565b91505092959194509250565b6000819050919050565b613db381613da0565b82525050565b6000602082019050613dce6000830184613daa565b92915050565b600060208284031215613dea57613de9613caa565b5b6000613df884828501613cf8565b91505092915050565b60008115159050919050565b613e1681613e01565b82525050565b6000602082019050613e316000830184613e0d565b92915050565b613e4081613da0565b8114613e4b57600080fd5b50565b600081359050613e5d81613e37565b92915050565b600060208284031215613e7957613e78613caa565b5b6000613e8784828501613e4e565b91505092915050565b60008060408385031215613ea757613ea6613caa565b5b6000613eb585828601613cf8565b9250506020613ec685828601613d24565b9150509250929050565b613ed981613c76565b82525050565b600081519050919050565b600082825260208201905092915050565b60005b83811015613f19578082015181840152602081019050613efe565b60008484015250505050565b6000601f19601f8301169050919050565b6000613f4182613edf565b613f4b8185613eea565b9350613f5b818560208601613efb565b613f6481613f25565b840191505092915050565b7f4e487b7100000000000000000000000000000000000000000000000000000000600052602160045260246000fd5b60058110613faf57613fae613f6f565b5b50565b6000819050613fc082613f9e565b919050565b6000613fd082613fb2565b9050919050565b613fe081613fc5565b82525050565b600061016083016000830151613fff6000860182613ed0565b50602083015184820360208601526140178282613f36565b915050604083015184820360408601526140318282613f36565b9150506060830151848203606086015261404b8282613f36565b915050608083015184820360808601526140658282613f36565b91505060a083015161407a60a0860182613ed0565b5060c083015161408d60c0860182613ed0565b5060e08301516140a060e0860182613fd7565b506101008301516140b5610100860182613ed0565b506101208301516140ca610120860182613ed0565b506101408301516140df610140860182613ed0565b508091505092915050565b600060208201905081810360008301526141048184613fe6565b905092915050565b6000819050919050565b600061413161412c61412784613caf565b61410c565b613caf565b9050919050565b600061414382614116565b9050919050565b600061415582614138565b9050919050565b6141658161414a565b82525050565b6000602082019050614180600083018461415c565b92915050565b60006020828403121561419c5761419b613caa565b5b60006141aa84828501613d24565b91505092915050565b6141bc81613ccf565b82525050565b60006020820190506141d760008301846141b3565b92915050565b60006060820190506141f26000830186613daa565b6141ff6020830185613c80565b61420c6040830184613e0d565b949350505050565b61421d81613fc5565b82525050565b60006020820190506142386000830184614214565b92915050565b6005811061424b57600080fd5b50565b60008135905061425d8161423e565b92915050565b6000806040838503121561427a57614279613caa565b5b600061428885828601613cf8565b92505060206142998582860161424e565b9150509250929050565b600082825260208201905092915050565b60006142bf82613edf565b6142c981856142a3565b93506142d9818560208601613efb565b6142e281613f25565b840191505092915050565b6000602082019050818103600083015261430781846142b4565b905092915050565b600081519050919050565b600082825260208201905092915050565b6000819050602082019050919050565b6000610160830160008301516143546000860182613ed0565b506020830151848203602086015261436c8282613f36565b915050604083015184820360408601526143868282613f36565b915050606083015184820360608601526143a08282613f36565b915050608083015184820360808601526143ba8282613f36565b91505060a08301516143cf60a0860182613ed0565b5060c08301516143e260c0860182613ed0565b5060e08301516143f560e0860182613fd7565b5061010083015161440a610100860182613ed0565b5061012083015161441f610120860182613ed0565b50610140830151614434610140860182613ed0565b508091505092915050565b600061444b838361433b565b905092915050565b6000602082019050919050565b600061446b8261430f565b614475818561431a565b9350836020820285016144878561432b565b8060005b858110156144c357848403895281516144a4858261443f565b94506144af83614453565b925060208a0199505060018101905061448b565b50829750879550505050505092915050565b600060208201905081810360008301526144ef8184614460565b905092915050565b6000806000606084860312156145105761450f613caa565b5b600061451e86828701613cf8565b935050602061452f86828701613cf8565b925050604061454086828701613d24565b9150509250925092565b60008160601b9050919050565b60006145628261454a565b9050919050565b600061457482614557565b9050919050565b61458c61458782613ccf565b614569565b82525050565b6000819050919050565b6145ad6145a882613c76565b614592565b82525050565b60006145bf828861457b565b6014820191506145cf828761457b565b6014820191506145df828661459c565b6020820191506145ef828561457b565b6014820191506145ff828461459c565b6020820191508190509695505050505050565b7f5a65726f2070656e616c74790000000000000000000000000000000000000000600082015250565b6000614648600c836142a3565b915061465382614612565b602082019050919050565b600060208201905081810360008301526146778161463b565b9050919050565b7f4e6f742061637469766500000000000000000000000000000000000000000000600082015250565b60006146b4600a836142a3565b91506146bf8261467e565b602082019050919050565b600060208201905081810360008301526146e3816146a7565b9050919050565b7f50656e616c747920657863656564732062616c616e6365000000000000000000600082015250565b60006147206017836142a3565b915061472b826146ea565b602082019050919050565b6000602082019050818103600083015261474f81614713565b9050919050565b7f4e487b7100000000000000000000000000000000000000000000000000000000600052601160045260246000fd5b600061479082613c76565b915061479b83613c76565b92508282039050818111156147b3576147b2614756565b5b92915050565b7f4e487b7100000000000000000000000000000000000000000000000000000000600052602260045260246000fd5b6000600282049050600182168061480057607f821691505b602082108103614813576148126147b9565b5b50919050565b7f4e487b7100000000000000000000000000000000000000000000000000000000600052601260045260246000fd5b600061485382613c76565b915061485e83613c76565b92508261486e5761486d614819565b5b828204905092915050565b600061488482613c76565b915061488f83613c76565b925082820261489d81613c76565b915082820484148315176148b4576148b3614756565b5b5092915050565b60006148c682613c76565b91506148d183613c76565b92508282019050808211156148e9576148e8614756565b5b92915050565b600060408201905061490460008301856141b3565b61491160208301846141b3565b9392505050565b600060408201905061492d6000830185613c80565b61493a6020830184613daa565b9392505050565b60006040820190506149566000830185614214565b6149636020830184614214565b9392505050565b600060408201905061497f6000830185613c80565b61498c6020830184613c80565b9392505050565b6000815190506149a281613d0d565b92915050565b6000602082840312156149be576149bd613caa565b5b60006149cc84828501614993565b91505092915050565b6000815490506149e4816147e8565b9050919050565b7f4e487b7100000000000000000000000000000000000000000000000000000000600052604160045260246000fd5b60008190508160005260206000209050919050565b60006020601f8301049050919050565b600082821b905092915050565b600060088302614a7c7fffffffffffffffffffffffffffffffffffffffffffffffffffffffffffffffff82614a3f565b614a868683614a3f565b95508019841693508086168417925050509392505050565b6000614ab9614ab4614aaf84613c76565b61410c565b613c76565b9050919050565b6000819050919050565b614ad383614a9e565b614ae7614adf82614ac0565b848454614a4c565b825550505050565b600090565b614afc614aef565b614b07818484614aca565b505050565b5b81811015614b2b57614b20600082614af4565b600181019050614b0d565b5050565b601f821115614b7057614b4181614a1a565b614b4a84614a2f565b81016020851015614b59578190505b614b6d614b6585614a2f565b830182614b0c565b50505b505050565b600082821c905092915050565b6000614b9360001984600802614b75565b1980831691505092915050565b6000614bac8383614b82565b9150826002028217905092915050565b818103614bca575050614ca2565b614bd3826149d5565b67ffffffffffffffff811115614bec57614beb6149eb565b5b614bf682546147e8565b614c01828285614b2f565b6000601f831160018114614c305760008415614c1e578287015490505b614c288582614ba0565b865550614c9b565b601f198416614c3e87614a1a565b9650614c4986614a1a565b60005b82811015614c7157848901548255600182019150600185019450602081019050614c4c565b86831015614c8e5784890154614c8a601f891682614b82565b8355505b6001600288020188555050505b5050505050505b565b7f4e487b7100000000000000000000000000000000000000000000000000000000600052603260045260246000fd5b6000604082019050614ce860008301856141b3565b614cf56020830184613c80565b9392505050565b6000606082019050614d1160008301866141b3565b614d1e60208301856141b3565b614d2b6040830184613c80565b94935050505056fea264697066735822122078949b2ba84e6b1f7001f6b3037c09d11907430c94db71d744a18c86a177a33964736f6c634300081c0033a26469706673582212204ae947e8a7cad4dd117b5e4de821e4a0a849595ae1e84c156b2b595fb54da15864736f6c634300081c0033",
  "linkReferences": {},
  "deployedLinkReferences": {}
}